:020000040000FA
:1000000023280000000000000F2807398207013470
:100010000234043408341034203440348034A000D6
:1000200003088301A1000A08A2008A010408A300B2
:100030000B1972202308840022088A0021088300FB
:10004000A00E200E090007309F00103085008601A9
:1000500083160313203085000F30860064000330C0
:1000600081008B16831203138101A50102218B17D6
:10007000A801A601A60A8320FF39031D3B28E02022
:10008000FF39031D3B2806080F392E02031D3B28AC
:100090001230A5002F08C039260203193B282F086B
:1000A000C039A6002F083F3903193B28FF3E0F39FE
:1000B000A400A4193B280520A7008B13AF1A6728BA
:1000C0002708FF39031967282708A8066E2827087C
:1000D000FF3AA80527082F1EA8046E2803147920CC
:1000E0008B173B280B11A508031D8128FF30A8059D
:1000F0000310EF302805031C1038850028088600FF
:100100000800A5030800AC142C102E308400033026
:10011000AD002C15A901851E8B28AA01851E9728E4
:10012000AA0A00003A302A02031C8E280134AA01D0
:100130002C18A228851AAA2861302A020318023432
:10014000AA0A9A28851EAA2861302A0203180234B6
:10015000AA0AA2280130AC0613302A02031C033479
:100160003A302A02031CB728AC1CBB2804340230E6
:10017000AC06AC1897282C1DCB282C1CC328291E94
:10018000A90A972809342C110C302902031C0A34BF
:100190000A30A9009728A9030319D8280130290695
:1001A000031DD5282C18972807342C0CAB0D972845
:1001B0002C1808342B088000840AAD0BC8280034A2
:1001C0002E3084000330AD00FF30AB000008AB06DA
:1001D0000301AB1B7A3A2B1B3D3AAB1A863A2B1A1A
:1001E000433AAB19B93A2B19C43AAB18623A2B18F7
:1001F000313AAB00840AAD0BE6282B08031D012918
:0602000000340C3408007C
:02400E00423F2F
:00000001FF
